:03000000020B7C74
:0C0B7C00787FE4F6D8FD758121020BC3E0
:03000E00DFFE22F0
:10101500AE07AF061EEF600C7FF512000E7FF512CE
:05102500000E80EE2228
:100FE900EF1FAC0670011E4C600B007D027CC7DC54
:050FF900FEDDFC80EBB1
:010FFE0022D0
:100D78002048656C6C6F2C77656C636F6D6500201F
:100D8800746F207468652073797374656D210043EE
:100D9800617264206E756D62657220656E74720092
:100DA8007900506C65617365207369676E206F7593
:100DB8007400506C65617365207369676E20696E95
:040DC8000000000027
:10103D004100040041000E00C10DC10AC10BC10CDD
:02104D00C109D7
:10077400E490002FF012102A121076120ED37FC8C4
:100784007E00120FE91200161210AD121096120D0F
:10079400CC120F6890003374FFF0A3740DF0A374AF
:1007A40078F07B017A00790F12008B7B017A007953
:1007B4000FE4FDFF120C9490003374FFF0A3740D4A
:1007C400F0A37487F07B017A00791F12008B7B0100
:1007D4007A00791F7D01E4FF120C947FD07E07120A
:1007E4000FE9200A0302086C300C097F647E0012B2
:1007F4000E14C20C12109690003374FFF0A3740D03
:10080400F0A37497F07B017A00790F12008B9000AB
:100814003374FFF0A3740DF0A374A8F07B017A0085
:10082400791F12008B7B017A00790FE4FDFF120C13
:10083400947B017A00791F7D01E4FF120C947FC838
:100844007E00120FE91210967B017A0079007F5224
:10085400120AEBEF708C7B017A007909120A29EFF6
:100864007080120D170207E63009127FFF120FAED7
:100874007BFF7A0D79C97D03120D1FC2097B017AB2
:100884000079007F52120AEBEF701D7B017A007928
:1008940009120A29EF7011120D177F647E00120FDE
:1008A4000E7F647E00120FE9900004E0640160038F
:1008B4000207E6121096300D1B300B097F647E0090
:1008C400120E14C20B90003374FFF0A3740DF0A346
:1008D40074AA8019300B097F647E00120E14C20BB7
:1008E40090003374FFF0A3740DF0A374BAF07B018D
:1008F4007A00790F12008B7B017A00790FE4FDFFF7
:0B090400120C94E4900004F00207E6DF
:10107600438901758CB1758AE0D2AFD2A9D28C2290
:03000B00020C08DC
:100C0800C0E0C0F0C083C082C0D075D000C000C0B2
:100C180001C002C003C004C005C006C007758CB17E
:100C2800758AE0900005E0FCA3E0FDA3E0FEA3E0E8
:100C38002401FFE43EFEE43DFDE43CFC9000051287
:100C4800052FE47B0AFAF9F8900005E0FCA3E0FD23
:100C5800A3E0FEA3E0FF12048CAC00AD01AE02AF2E
:100C680003E4FBFAF9F8C312051E700590000404AA
:100C7800F0D007D006D005D004D003D002D001D0E0
:0C0C880000D0D0D082D083D0F0D0E03279
:0C001600C289D2AFD288D2A875B80122EE
:0910AD00C28BD2AFD28AD2AA2272
:030003000210B632
:0710B600B20DD20BD209328A
:03001300020006E2
:05000600B20AD20C3229
:10102A00759850438920758DFD858D8BD28ED2AFF0
:03103A00D2AC2213
:100FAE00E4900035F08F99209913900035E0C394AA
:0F0FBE0064500AE004F07F0A12000E80EAC29924
:010FCD002201
:080D17007B017A0079097D04DB
:0E0D1F00900030EBF0A3EAF0A3E9F0A3EDF0B2
:100D2D00E4A3F0300D09300A0280077F01800930FD
:100D3D000A047F028002E4FF120FAE900033E0FF41
:100D4D00A3E0C39F5024900030E0FBA3E0FAA3E0A2
:100D5D00F912038BFF120FAE900031E475F0011202
:0A0D6D000405900034E004F080D18A
:010D77002259
:030023000210A226
:0B10A200309802C298309902C29932C7
:100E9600E4FEC290C291EF25E0547E4480FF7D08B7
:100EA600EF30E704D2928002C292D291EF25E0FFA2
:100EB600C291DDEC7D08D291EE25E0FEA293E433EB
:0C0EC6004EFEC291DDF0C291D290AF064A
:010ED20022FD
:04090F00E4FD7F0183
:10091300C290C291EF25E0547EFF30E704D292806B
:1009230002C292D291EF25E0FFC29130E704D29246
:100933008002C292D291EF25E0FFC29130E704D248
:10094300928002C292D291EF25E0FFC29130E70478
:10095300D2928002C292D291EF25E0FFC29130E79A
:1009630004D2928002C292D291EF25E0FFC291306D
:10097300E704D2928002C292D291EF25E0FFC291A6
:1009830030E704D2928002C292D291EF25E0C29165
:1009930030E704D2928002C292D291C291ED30E745
:1009A30004D2928002C292D291ED25E0FDC2913031
:1009B300E704D2928002C292D291ED25E0FDC2916A
:1009C30030E704D2928002C292D291ED25E0FDC2BB
:1009D3009130E704D2928002C292D291ED25E0FDDC
:1009E300C29130E704D2928002C292D291ED25E007
:1009F300FDC29130E704D2928002C292D291ED25DA
:100A0300E0FDC29130E704D2928002C292D291ED0E
:100A130025E0C29130E704D2928002C292D291C201
:050A230091C291D29088
:010A280022AB
:04105000AC05AB0739
:0F105400E4FE120E96EF4CFEAF034CFD020913A3
:04106300AC07AB0526
:0F106700E4FE120E96EBF45FFEAF04FD020913D8
:100DCC0000D2947F3C12000EC2947F3C12000ED2D3
:100DDC00947F3C12000E7D0F7F011209137F3C1291
:100DEC00000E7D3D7F111209137D1E7F2D120913FC
:100DFC00E4FD7F2C1209137D8D7F2A1209137D3E91
:080E0C007F2B1209137F002265
:100F68007D407F151209137F011210157F14120E90
:100F780096AA07EA540370077D037F141210507F66
:040F880015020E96AA
:1005810090004AEBF0A3EAF0A3E9F0900049EFF004
:1005910090005474FEF0E4A3F0A3F0EF24F4601093
:1005A10024FE70169000557412F0A37410F0800AA6
:1005B1009000557477F0A37430F0900055E04480BA
:1005C100FD7F021209137D807F0412106312090F4F
:1005D1007D807F0A121050E4900058F0A3F0900043
:1005E1004DE0FF900058E0FCA3E0FDC39FEC9400B8
:1005F100502890004AE0FBA3E0FAA3E0F98D828C39
:10060100831203A4FD7F09120913900059E004F03D
:1006110070CC900058E004F080C4900049E0FD7F68
:1006210001120913E0B40C077D807F0D1210509068
:1006310000587417F0A37470F07F04120E969000A6
:1006410057EFF0900059E024FFF0900058E034FF9C
:10065100F0E07002A3E06011900057E0FF20E00994
:10066100900056E0FEEF5E60D07D807F0D1210633A
:10067100900058E07002A3E070030207647F061245
:100681000E96EF541B600302075E900054F0A3E046
:10069100FF900057E05F30E00690005474FFF09047
:1006A1000049E0640C60030207647F0A120E969011
:1006B1000057EFF07F0C120E96EF5407FD6026E015
:1006C10024FFFFE434FFFEEF7803C333CE33CED8EB
:1006D100F97C002DFFEC3EF9900051E0FBA3E0FA1C
:1006E100A3E0C98016900057E075F008A4FF9000C0
:1006F10051E0FBA3E0FAA3E0F9E5F08FF012043139
:10070100900057E0700204F0900057E0D39412403B
:10071100037412F0E4900058F0A3F0900057E0FF4A
:10072100C3900059E09F900058E0940050357F0934
:10073100120E9690004EE0FBA3E0FAA3E0F99000C0
:1007410058E0FCA3E0F5828C83EF1203E39000599B
:10075100E004F070C6900058E004F080BE900054B0
:1007610074FEF07D807F0C12105012090F9000541E
:02077100E0FFA7
:010773002263
:0E0AEB00900030EFF0A3EBF0A3EAF0A3E9F0E7
:100AF9007D087F081210637D077F0D1209137D039E
:100B09007F14121050900030E0900036F090004DA4
:100B19007401F0A3F0A37400F0A37436F0A3740178
:100B2900F0A37400F0A37434F07B017A0079367F66
:100B39000C120581EF7039900034E07004A3E06471
:100B490010702D900036E0FE900031E0FBA3E0FA32
:100B5900A3E0F9EE1203D1900037E0FE900031E0F6
:100B6900FBA3E0FAA3E0F9900001EE1203E380028F
:020B79007FFEFD
:010B7B002257
:0B0A2900900030EBF0A3EAF0A3E9F02E
:100A3400E4900034F07D087F08121063E4FD7F0D1C
:100A44001209137D807F0E1210639000377493F0A7
:100A5400A37420F090004D7402F07B01A314F0A362
:100A64007400F0A37437F0A3EBF0A37400F0A37444
:100A740035F07A0079377F0C120581900033EFF05E
:100A84007058FC74372CF582E43400F583E0FE9052
:100A94000030E0FBA3E0FAA3E0F9AF048F82758392
:100AA40000EE1203E3900034E0FE74372FF582E485
:100AB4003400F583E0FDEE6D900034F00CECB404EA
:100AC400C274372CF582E43400F583E0FF900034DF
:100AD400E06F600690003374FEF07D807F0E12108C
:060AE40050900033E0FF1A
:010AEA0022E9
:100C9400900030EFF0A3EDF0A3EBF0A3EAF0A3E9AA
:010CA400F05F
:100CA500E4900039F0900035EBF0A3EAF0A3E9F009
:100CB500900032E0FBA3E475F00112041BA9F0FAE1
:100CC50012038B6008900039E004F080E3E49000A3
:100CD50038F0900039E0FF900038E0FEC39F5031B6
:100CE500900030E0FF04F0A3E0FD900035E0FBA3A9
:100CF500E0FAA3E0F98E827583001203A4FB1210BB
:100D050086900030E064106008900038E004F080C0
:010D1500C11C
:010D160022BA
:100FFF00EF540FFFED54016004EF4440FFEF4480C6
:06100F00FF7D01020F90BD
:1010860090003AEBF0120FFF90003AE0FF020FCE0D
:100ED300120F8C7F05121015120F8C7F051210153F
:100EE300120F8C7F051210157D017F38120F907D34
:100EF300017F08120F907D017F01120F907D017F0A
:0B0F030006120F907D017F0C020F9082
:0C1096007D017F01120F907F05021015F4
:040F8C00E4FD7F38C9
:100F900090003BEFF0ED6003120E57C2A0C2A1001B
:0E0FA00090003BE0F58000D2A20000C2A22229
:100FCE0090003BEFF0120E57D2A0C2A1D2A2009019
:0B0FDE00003BE0F580000000C2A222F2
:100E5700E490003CF0A3F07580FFC2A0D2A100D2BD
:100E6700A20000E58030E724C390003DE094E890BD
:100E7700003CE0940350157F0212000E90003DE005
:0E0E870004F070DF90003CE004F080D7C2A2BF
:010E9500223A
:0510BD00007FE3DFFEEF
:0110C200220B
:100F0E00AD07AC06E490005AF0A3F0ED25E0FFEC3F
:100F1E0033FEC390005BE09F90005AE09E5013B2E8
:100F2E00A51210BDA3E004F070E190005AE004F0A9
:030F3E0080D92235
:100E1400900030EEF0A3EFF0E490005AF0A3F090CD
:100E24000031E025E0FF900030E033FEC390005B2A
:100E3400E09F90005AE09E5019B2A57F017E0012F7
:100E44000FE990005BE004F070D590005AE004F0E4
:030E540080CD222C
:100B8800020774E493A3F8E493A34003F68001F208
:100B980008DFF48029E493A3F85407240CC8C3336E
:100BA800C4540F4420C8834004F456800146F6DF3D
:100BB800E4800B010204081020408090103DE47E80
:100BC800019360BCA3FF543F30E509541FFEE49332
:100BD800A360010ECF54C025E060A840B8E493A3F9
:100BE800FAE493A3F8E493A3C8C582C8CAC583CA24
:100BF800F0A3C8C582C8CAC583CADFE9DEE780BEDC
:01104F0000A0
:10038B00BB010689828A83E0225002E722BBFE0270
:09039B00E32289828A83E49322A3
:1003A400BB010CE58229F582E5833AF583E022500E
:1003B40006E92582F8E622BBFE06E92582F8E22258
:0D03C400E58229F582E5833AF583E4932272
:1003D100BB010689828A83F0225002F722BBFE010B
:0203E100F32205
:1003E300F8BB010DE58229F582E5833AF583E8F050
:1003F300225006E92582C8F622BBFE05E92582C8FC
:02040300F222E3
:10040500C5F0F8A3E028F0C5F0F8E5821582700282
:060415001583E038F0221F
:10041B00A3F8E0C5F025F0F0E58215827002158394
:06042B00E0C838F0E822F1
:10043100BB010A89828A83F0E5F0A3F0225006F716
:0F04410009A7F01922BBFE06F3E5F009F3192213
:1004500075F008758200EF2FFFEE33FECD33CDCC63
:1004600033CCC58233C5829BED9AEC99E5829840E6
:100470000CF582EE9BFEED9AFDEC99FC0FD5F0D6C3
:10048000E4CEFBE4CDFAE4CCF9A88222B800C1B9ED
:100490000059BA002DEC8BF084CFCECDFCE5F0CB2B
:1004A000F97818EF2FFFEE33FEED33FDEC33FCEB64
:1004B00033FB10D703994004EB99FB0FD8E5E4F91F
:1004C000FA227818EF2FFFEE33FEED33FDEC33FC0C
:1004D000C933C910D7059BE99A4007EC9BFCE99A00
:1004E000F90FD8E0E4C9FAE4CCFB2275F010EF2F45
:1004F000FFEE33FEED33FDCC33CCC833C810D70745
:100500009BEC9AE899400AED9BFDEC9AFCE899F87F
:0E0510000FD5F0DAE4CDFBE4CCFAE4C8F92212
:10051E00EB9FF5F0EA9E42F0E99D42F0E89C45F033
:01052E0022AA
:0C052F00ECF0A3EDF0A3EEF0A3EFF0223F
:10002600E5082433F582E43400F583E005082290E0
:100036000030300703900033E475F00112053B02EF
:10004600038B2000E97F2ED2008018EF540F2490F6
:10005600D43440D4FF30040BEF24BFB41A0050034D
:100066002461FFE50960021509050CE50C7002051F
:100076000B30070E900030E475F00112053BEF02DD
:1000860003D1020F417403D2078003E4C207F508C7
:10009600900030120552E4F509F50BF50CE5096000
:1000A600077F2012006980F5750AFFC201C200C2EF
:1000B60002C203C205C206C208120035FF700D3027
:1000C60007057F0012007AAF0CAE0B22B4255FC283
:1000D600D5C204120035FF24D0B40A00501A75F0B8
:1000E6000A780930D50508B6FF0106C6A426F6200B
:1000F600D5047002D20380D924CFB41A00EF50047D
:10010600C2E5D20402027BD20180C6D20080C0D2F0
:100116000280BCD2D580BAD20580B47F2012006995
:100126002002077401B5090040F1120026FF1200F3
:10013600690200A3D208D2068095120026FB12009F
:1001460026FA120026F94A4B7006794C7A037BFF91
:1001560020022EE509602A7E008E82758300120336
:10016600A460060EEE650A70F0C2D5EBC0E0EAC0E8
:10017600E0E9C0E0EE1202C2D0E0F9D0E0FAD0E049
:10018600FB12038BFF60AAEBC0E0EAC0E0E9C0E027
:10019600120069D0E02401F9D0E03400FAD0E0FB87
:1001A600E50A0460DCD50AD980877BFF7A0279BE2E
:1001B600D202809C791080027908C206C2088008A3
:1001C600D2D5790A8004790AC2D5E50A047002F507
:1001D6000AE4FAFDFEFF120026FC7B08200113123A
:1001E6000026FD7B1030000A120026FE120026FFB4
:1001F6007B20EC3382D592D55013C3E43000069FA2
:10020600FFE49EFEE42001039DFDE49CFCE4CBF8A4
:10021600C201EC700CCFCECDCCE824F8F870F38098
:1002260017C3EF33FFEE33FEED33FDEC33FCEB3358
:10023600FB994002FB0FD8E9EB300105F8D0E0C48A
:1002460048B201C0E00AEC4D4E4F78207B0070C2E8
:10025600EAB50A0040BCC0E01202C4D0F0D0E020EB
:100266000104C4C0E0C4B201C0F0120052D0F0D5FF
:10027600F0EB0200A312055B01405301BA580111CD
:100286004C010D4201BE4F01C64401C64901264339
:0802960001CC5501B04601B096
:10029E004501B047036C5001152D01192E013C2B61
:1002AE00011D23013A2003552A00D54800000134D0
:1002BE003F3F3F00790AA2D5200314300509B9103B
:1002CE00020404B9080104A2D5200602500104203C
:1002DE0002689202B509005034C0E07F2030031945
:1002EE007F30A20272067205500F12031BC202C2A9
:1002FE0006C205C2087F30800F300503E9C0E01248
:10030E000069300503D0E0F9D0E0B509CC3005170F
:10031E007F30B9100C1200697F583004077F788047
:10032E0003B908031200693002057F2D0200697FB0
:10033E00202008F87F2B2006F322920280CF286E11
:10034E00756C6C2900D2011200263001F8C20178BA
:10035E000930D50108F60200D52D50434958120038
:10036E00262403B405004001E49003679312005A5B
:0D037E00743A12005AD2037509040201BA44
:10053B00F8E0FBA3A3E0F925F0F0E5821582700249
:07054B001583E0FA38F022ED
:09055200EBF0A3EAF0A3E9F022AA
:10055B00D083D082F8E4937012740193700DA3A32F
:10056B0093F8740193F5828883E473740293686043
:06057B00EFA3A3A380DF43
:100F4100EFB40A07740D120F4C740A309811A89966
:100F5100B8130CC2983098FDA899C298B811F63010
:070F610099FDC299F59922E8
:00000001FF
